:020000040000FA
:100000000C94C4000C94EC000C94EC000C94EC00E8
:100010000C94EC000C94EC000C94EC000C94EC00B0
:100020000C94EC000C94EC000C94EC000C94CA04BE
:100030000C94EC000C94EC000C94EC000C94EC0090
:100040000C9428040C94EC000C9498040C94720406
:100050000C94EC000C94EC000C94EC000C94EC0070
:100060000C94EC000C94EC005B4455414C20504F38
:1000700052545D204E616E6F2068616E646C6573D2
:1000800020494F202B2074656C656D657472793B37
:100090002050414E2F54494C54206F6E20446562CD
:1000A000756720426F617264005B4355525D205456
:1000B0006F74616C2063757272656E742073656E07
:1000C000736F722070696E3A204132005B43555263
:1000D0005D2054656C656D657472793A20535441A6
:1000E0005420493D3C6D413E004442333030302085
:1000F0004E616E6F20494F2054656C656D6574725A
:100100007920323032363A205245414459002C523F
:1001100041575F434F554E542C00454E434F444585
:10012000525F54494C542C005054454E3D0053549A
:10013000415420493D000000000800020100000376
:10014000040700000000000000000000000025007F
:1001500028002B0000000000240027002A000404CF
:10016000040404040404020202020202030303035F
:10017000030301020408102040800102040810203B
:10018000010204081020860511241FBECFEFD8E01D
:10019000DEBFCDBF11E0A0E0B1E0EAEAF8E102C0C5
:1001A00005900D92A832B107D9F722E0A8E2B1E09C
:1001B00001C01D92AB38B207E1F710E0C4ECD0E00B
:1001C00004C02197FE010E94340CC33CD107C9F73B
:1001D0000E94E3050C94530C0C940000CF92DF9224
:1001E000EF92FF92DC01A03282E0B807D4F5A53B84
:1001F000B10514F0A4EBB0E04091890228E830E0AA
:10020000241B310947FD3395220F331F220F331F63
:100210006901330FEE08FF0840918A0228E532E0B9
:10022000241B310947FD3395220F331F220F331F43
:10023000032E000C440B550B2C193D094E095F0988
:10024000B7FF02C0B0E0A0E00E94B60924EB30E0A6
:1002500040E050E00E948C09C20ED31EE41EF51E41
:10026000D601E0918802EC3080F52091890288E87F
:1002700090E0821B910927FD9395880F991F880FA5
:10028000991FA817B90784F020918A0288E592E0A7
:10029000821B910927FD9395880F991F880F991F3D
:1002A000A817B9070CF4CD010297880F991F4FB713
:1002B000F8942E2F30E0F901EE0FFF1FE20FF31F2D
:1002C000ED59FD4F928381834FBFFF90EF90DF90F8
:1002D000CF90089590E0FC01EE58FE4F2491825A91
:1002E0009E4FFC018491882399F090E0880F991F1C
:1002F000FC01EC5AFE4FA591B491FC01E65BFE4F68
:10030000859194918FB7F894EC91E22BEC938FBF89
:10031000089590E0FC01EA5CFE4F2491FC01EE5848
:10032000FE4F3491FC01E25AFE4FE491EE23C9F0F6
:10033000222339F0233001F1A8F4213019F12230C1
:1003400029F1F0E0EE0FFF1FE65BFE4FA591B4919F
:100350008FB7F894EC91611126C030953E233C9301
:100360008FBF08952730A9F02830C9F0243049F70D
:10037000809180008F7D03C0809180008F77809373
:100380008000DFCF84B58F7784BDDBCF84B58F7DD0
:10039000FBCF8091B0008F778093B000D2CF809157
:1003A000B0008F7DF9CF3E2BDACF2FB7F894609154
:1003B000C2017091C3018091C4019091C5012FBF0A
:1003C0000895AF92BF92CF92DF92EF92FF920F9378
:1003D0001F93CF93DF936C017B018B01040F151FDB
:1003E000EB015E01AE18BF08C017D10759F0699143
:1003F000D601ED91FC910190F081E02DC6010995A7
:10040000892B79F7C501DF91CF911F910F91FF9053
:10041000EF90DF90CF90BF90AF900895FC01538D87
:10042000448D252F30E0842F90E0821B930B5417CE
:1004300010F0CF96089501970895FC01918D828D5B
:10044000981761F0A28DAE0FBF2FB11D5D968C91F4
:10045000928D9F5F9F73928F90E008958FEF9FEF33
:100460000895FC01918D828D981731F0828DE80FEF
:10047000F11D858D90E008958FEF9FEF0895FC01A9
:10048000918D228D892F90E0805C9F4F821B910976
:100490008F739927089586EC91E00E943F0221E036
:1004A000892B09F420E0822F089580E090E0892BC9
:1004B00029F00E944B0281110C9400000895FC0168
:1004C000A48DA80FB92FB11DA35ABF4F2C91848DB5
:1004D00090E001968F739927848FA689B7892C9312
:1004E000A089B1898C91837080648C93938D848D65
:1004F000981306C00288F389E02D80818F7D808368
:100500000895EF92FF920F931F93CF93DF93EC0127
:1005100081E0888F9B8D8C8D98131AC0E889F989AA
:10052000808185FF15C09FB7F894EE89FF896083AD
:10053000E889F98980818370806480839FBF81E02E
:1005400090E0DF91CF911F910F91FF90EF90089570
:10055000F62E0B8D10E00F5F1F4F0F731127E02E4B
:100560008C8D8E110CC00FB607FCFACFE889F98983
:10057000808185FFF5CFCE010E945F02F1CFEB8D28
:10058000EC0FFD2FF11DE35AFF4FF0829FB7F89457
:100590000B8FEA89FB8980818062CFCF0F931F93F5
:1005A000CF93DF938C01D0E0C0E0F801EC0FFD1F8A
:1005B0006491662341F086EC91E00E948102892BD0
:1005C00011F02196F2CFCE01DF91CF911F910F91C3
:1005D0000895CF93DF93EC01888D8823B9F0AA8921
:1005E000BB89E889F9898C9185FD03C0808186FDEE
:1005F0000DC00FB607FCF7CF8C9185FFF2CF80813D
:1006000085FFEDCFCE010E945F02E9CFDF91CF9150
:100610000895CF93DF9361E080912E0190912F0197
:10062000892B09F460E084E00E94890161E08091F7
:100630002C0190912D01892B09F460E085E00E9446
:10064000890161E080912A0190912B01892B09F4A5
:1006500060E087E00E94890180910001882311F009
:1006600060E00BC0C0913501D09136018091290125
:10067000811109C061E0CD2B99F386E00E948901C8
:100680008AE590E008C060E086E00E94890188E782
:1006900090E0CD2BA9F3DF91CF910C94EE008F92D7
:1006A0009F92AF92BF920F931F93CF93DF93CDB7DB
:1006B000DEB7A1970FB6F894DEBF0FBECDBF19A26B
:1006C000423008F44AE08E010F5D1F4F842E912CBA
:1006D000B12CA12CA50194010E94BE09E62FB901FD
:1006E000CA01EA3044F5E05DD801EE938D01232B79
:1006F000242B252B79F790E080E0109769F0FD011D
:1007000001900020E9F73197AF014A1B5B0BBD0157
:1007100086EC91E00E94E101A1960FB6F894DEBF4D
:100720000FBECDBFDF91CF911F910F91BF90AF90C2
:100730009F908F900895E95CD7CF42E050E063E14D
:1007400071E086EC91E00C94E101CF93DF930E947D
:10075000CE02EC010E949D038C0F9D1FDF91CF9173
:100760000895CF92DF92EF92FF92CF93DF9397FF9E
:100770001BC06B017C016DE286EC91E00E9481025E
:10078000EC0166277727CB016C197D098E099F093B
:100790004AE00E944F038C0F9D1FDF91CF91FF9085
:1007A000EF90DF90CF9008954AE0DF91CF91FF90D6
:1007B000EF90DF90CF900C944F030F931F93CF9344
:1007C000DF93EA010097F1F1062E000C770B0E94EF
:1007D0003A0C0097B9F10196FC0120810196203274
:1007E000D9F32A33C9F32D33B9F300E02D3211F4D4
:1007F000FC0101E080E020E030E0A901119190EDE2
:10080000910F9A3098F4AAE0B0E00E94AB09212F32
:10081000110F330B20533109032E000C440B550BE1
:10082000260F371F481F591F81E0E8CF882351F05A
:10083000002339F050954095309521953F4F4F4F0B
:100840005F4FE901CE01DF91CF911F910F91089584
:100850001F920F920FB60F9211242F933F938F93F5
:100860009F93AF93BF938091C2019091C301A091D8
:10087000C401B091C5013091C10123E0230F2D3790
:1008800058F50196A11DB11D2093C1018093C201AD
:100890009093C301A093C401B093C5018091BD01A1
:1008A0009091BE01A091BF01B091C0010196A11D20
:1008B000B11D8093BD019093BE01A093BF01B09381
:1008C000C001BF91AF919F918F913F912F910F9058
:1008D0000FBE0F901F90189526E8230F0296A11DBA
:1008E000B11DD2CF1F920F920FB60F9211242F93EA
:1008F0003F934F935F936F937F938F939F93AF93A8
:10090000BF93EF93FF9386EC91E00E945F02FF910B
:10091000EF91BF91AF919F918F917F916F915F9177
:100920004F913F912F910F900FBE0F901F901895F0
:100930001F920F920FB60F9211242F938F939F93B4
:10094000EF93FF93E091D601F091D7018081E09180
:10095000DC01F091DD0182FD1BC090818091DF01FF
:100960008F5F8F732091E001821741F0E091DF01EA
:10097000F0E0EA53FE4F958F8093DF01FF91EF91F6
:100980009F918F912F910F900FBE0F901F901895F0
:100990008081F4CF1F920F920FB60F9211242F93E4
:1009A0003F934F935F936F937F938F939F93AF93F7
:1009B000BF93CF93DF93EF93FF9380912801C09172
:1009C0008702D0E087FF24C0109285001092840037
:1009D000809128018F5F8093280180912801082E43
:1009E000000C990B8C179D0724F4809128018C3002
:1009F000C4F18091840090918500049680349C49D4
:100A000008F47AC08091840090918500049676C0A5
:100A100080912801082E000C990B8C179D07C4F6B5
:100A2000E09128018E2FEE0F990BFC01EE0FFF1FB6
:100A3000E80FF91FED59FD4F808186FFC9CFE09186
:100A400028018E2FEE0F990BFC01EE0FFF1FE80F10
:100A5000F91FED59FD4F808160E08F730E9489017D
:100A6000B7CF2091840030918500E09128018E2F2E
:100A7000EE0F990BFC01EE0FFF1FE80FF91FED5968
:100A8000FD4F81819281820F931F90938900809303
:100A90008800E09128018E2FEE0F990BFC01EE0FDC
:100AA000FF1FE80FF91FED59FD4F808186FF11C030
:100AB000E09128018E2FEE0F990BFC01EE0FFF1F26
:100AC000E80FF91FED59FD4F808161E08F730E949F
:100AD0008901FF91EF91DF91CF91BF91AF919F91EC
:100AE0008F917F916F915F914F913F912F910F90D7
:100AF0000FBE0F901F90189580E49CE99093890099
:100B0000809388008FEF80932801E3CF1092C90172
:100B10001092C80188EE93E0A0E0B0E08093CA0193
:100B20009093CB01A093CC01B093CD0185E091E0EF
:100B30009093C7018093C60185EC90E09093D30118
:100B40008093D20184EC90E09093D5018093D401FE
:100B500080EC90E09093D7018093D60181EC90E0F7
:100B60009093D9018093D80182EC90E09093DB01BF
:100B70008093DA0186EC90E09093DD018093DC01B4
:100B80001092DF011092E0011092E1011092E20157
:100B9000809187028C3098F491E0980F90938702AF
:100BA0008093880290E0FC01EE0FFF1FE80FF91F11
:100BB000ED59FD4F88EB9BE09283818308958FEF81
:100BC000809388020895789484B5826084BD84B54A
:100BD000816084BD85B5826085BD85B5816085BD38
:100BE00080916E00816080936E00109281008091F0
:100BF0008100826080938100809181008160809378
:100C00008100809180008160809380008091B1009C
:100C100084608093B1008091B00081608093B000C7
:100C200080917A00846080937A0080917A0082605B
:100C300080937A0080917A00816080937A0080911D
:100C40007A00806880937A001092C100E091D6010A
:100C5000F091D70182E08083E091D201F091D3013D
:100C60001082E091D401F091D50180E1808310924F
:100C7000DE01E091DA01F091DB0186E08083E09112
:100C8000D801F091D901808180618083E091D80101
:100C9000F091D901808188608083E091D801F09142
:100CA000D901808180688083E091D801F091D901D9
:100CB00080818F7D808386E00E946A0184E00E94AB
:100CC0006A0185E00E946A0187E00E946A0160E093
:100CD00086E00E94890160E084E00E94890160E072
:100CE00085E00E94890160E087E00E94890180918F
:100CF00088028C3008F050C089E00E946A0180911F
:100D00008802282F30E0F901EE0FFF1FE20FF31FDA
:100D1000ED59FD4F9081907C9960908310928902EB
:100D200010928A022CE0622F0E94280C829FB00150
:100D3000112430E020E0AB01420F531FFA01EE0F07
:100D4000FF1FE40FF51FED59FD4F908196FD16C072
:100D50002F5F3F4F2C30310571F781110FC010927A
:100D6000800082E0809381001092850010928400C0
:100D7000B19A80916F00826080936F00E091880249
:100D80008E2F90E0FC01EE0FFF1FE80FF91FED59C9
:100D9000FD4F8081806480838AE590E00E94EE00B0
:100DA0000E94D50160933701709338018093390117
:100DB00090933A010E94D501609331017093320102
:100DC000809333019093340189EE90E00E94A50353
:100DD0008CEC90E00E94A50389EA90E00E94A503B4
:100DE00088E690E00E94A5030E94090302E490E0D7
:100DF000E92E90E0F92E86EC91E00E943F02181651
:100E000019060CF0F2C086EC91E00E941D028A30B7
:100E100009F0D4C0E091BB01F091BC01E55CFE4F4C
:100E20001082CBE3D1E0FE0181918032D1F097EFC7
:100E3000980F9230B0F08D30A1F08823A9F1FE0117
:100E400001900020E9F73197CE17DF0761F082911A
:100E50008D3029F0803219F08950823020F41082D0
:100E6000F3CFEF01E0CF18811123F1F04BE050E018
:100E700066E171E0CE010E94450C892BD1F48AE134
:100E800091E00E94CE026AE570E080E090E00E946E
:100E9000B1038EE091E00E94CE0260E070E0CB01F1
:100EA0000E94B1030E949D031092BC011092BB01ED
:100EB000A2CF44E050E062E271E0CE010E94450C16
:100EC0000097F9F42C81222369F02496CE01299110
:100ED0002032E1F32930D1F32A33C1F32D33B1F3BA
:100EE0000E946609C1E0892B09F4C0E0C09330017B
:100EF00088E291E00E94CE026C2F70E090E080E0EA
:100F0000CFCFFE0101900020E9F7CF0101978C1BA4
:100F10009D0B8330910508F04FC11C3409F4AEC11C
:100F2000123509F4BFC1163409F41FC1133509F491
:100F30003CC11D3409F49DC1173409F03DC101972E
:100F400009F035C150E040E067E4CE010E94DD03C6
:100F500021E030E0892B11F430E020E030932B01C8
:100F600020932A010FC050E040E0612FCE010E9483
:100F7000DD031C3409F48BC194F4163409F4FDC06C
:100F8000173431F30E94D501609337017093380113
:100F90008093390190933A010E94090385CF12355D
:100FA00009F489C1133509F4F9C01D3459F721E05A
:100FB000892B09F420E020932901E4CF8D3009F436
:100FC0001ACF2091BB013091BC01A9014F5F5F4F47
:100FD0004038510508F068CF5093BC014093BB01E5
:100FE000255C3E4FF901808306CF0E94D5014B015D
:100FF0005C018091370190913801A0913901B09145
:101000003A01A5019401281B390B4A0B5B0BDA014D
:10101000C901893E9340A105B10530F01092360117
:10102000109235010E9409038091310190913201A3
:10103000A0913301B0913401A5019401281B390B13
:101040004A0B5B0BDA01C90184369105A105B10594
:1010500008F47FC08092310190923201A092330156
:10106000B092340120E160E070E0CB0100937C009D
:1010700030917A00306430937A0030917A0036FDF6
:10108000FCCF8090780090907900092C000CAA0881
:10109000BB08680D791D8A1D9B1D215039F70E94E0
:1010A000090B20E030E040E85DE30E94BB0B20E04C
:1010B00030E040EA50E40E94BB0B20E030EC4FE708
:1010C00054E40E94610A20E030E040E250E40E94D3
:1010D000EF0924EA30E74DE35EE30E94610A4B0129
:1010E0005C0120E030E0A9010E945C0A87FF03C098
:1010F000812C912C540120E030E04AE754E4C501F2
:10110000B4010E94BB0B20E030E040E05FE30E94AE
:10111000F0090E94D30A4B015C013DE7831635E1DB
:101120009306A104B10434F08CE7882E85E1982E53
:10113000A12CB12C8EE291E00E94CE02C501B40137
:1011400097FF03C060E070E0CB010E94B1030E94F2
:101150009D03E114F10409F44ECE0E944B02882352
:1011600009F449CE0E94000046CE019701F550E0F7
:1011700040E066E4CE010E94DD0321E030E0892BEF
:1011800011F430E020E03093360120933501FACE9F
:1011900050E040E063E5CE010E94DD0321E0892BB1
:1011A00009F420E020930001EDCE019789F38981B5
:1011B0008053823008F4D7CE40912E0150912F01F8
:1011C0006CE4CE010E94DD0321E030E0892B11F4B4
:1011D00030E020E030932F0120932E0140912C012C
:1011E00050912D0162E5CE010E94DD0321E030E047
:1011F000892B11F430E020E030932D0120932C0155
:1012000040912A0150912B0167E4CE010E94DD0339
:1012100021E030E0892B11F430E020E030932B0105
:1012200020932A01409135015091360166E4CE01A8
:101230000E94DD0321E030E0892B11F430E020E052
:1012400030933601209335014091000150E063E571
:10125000CE010E94DD0321E0892B09F420E02093D8
:1012600000014091290150E06DE4CE010E94DD03B0
:101270009ECE50E040E00197B9F399CF019709F075
:1012800096CF50E040E06CE4CE010E94DD0321E007
:1012900030E0892B11F430E020E030932F012093CF
:1012A0002E0170CE019709F082CF50E040E062E558
:1012B000CE010E94DD0321E030E0892B11F430E003
:1012C00020E030932D0120932C015CCEFC01882777
:1012D0009927E89421912032E9F3293010F02E303B
:1012E000C8F32B3241F02D3239F4689404C00E94C7
:1012F0008409820F911D219120532A30C0F31EF4DE
:10130000909581959F4F08957AE0979F902D879FA4
:10131000802D910D11240895052E97FB1EF4009445
:101320000E94A30957FD07D00E94BE0907FC03D005
:101330004EF40C94A30950954095309521953F4F5C
:101340004F4F5F4F089590958095709561957F4FB1
:101350008F4F9F4F08950E94E009A59F900DB49F65
:10136000900DA49F800D911D11240895B7FF0C943A
:10137000AB090E94AB09821B930B0895A1E21A2EC0
:10138000AA1BBB1BFD010DC0AA1FBB1FEE1FFF1F29
:10139000A217B307E407F50720F0A21BB30BE40B79
:1013A000F50B661F771F881F991F1A9469F76095C0
:1013B0007095809590959B01AC01BD01CF0108957A
:1013C000A29FB001B39FC001A39F700D811D112486
:1013D000911DB29F700D811D1124911D08955058CB
:1013E000BB27AA270E94070A0C94810B0E94730B4B
:1013F00038F00E947A0B20F039F49F3F19F426F45C
:101400000C94700B0EF4E095E7FB0C946A0BE92F3B
:101410000E94920B58F3BA17620773078407950767
:1014200020F079F4A6F50C94B40B0EF4E0950B2E95
:10143000BA2FA02D0B01B90190010C01CA01A00126
:101440001124FF27591B99F0593F50F4503E68F181
:101450001A16F040A22F232F342F4427585FF3CFC2
:10146000469537952795A795F0405395C9F77EF493
:101470001F16BA0B620B730B840BBAF09150A1F0DC
:10148000FF0FBB1F661F771F881FC2F70EC0BA0F62
:10149000621F731F841F48F4879577956795B795EA
:1014A000F7959E3F08F0B0CF9395880F08F09927E5
:1014B000EE0F9795879508950E94460B08F481E0FA
:1014C00008950E94750A0C94810B0E947A0B58F0C3
:1014D0000E94730B40F029F45F3F29F00C946A0BD3
:1014E00051110C94B50B0C94700B0E94920B68F385
:1014F0009923B1F3552391F3951B550BBB27AA27CD
:1015000062177307840738F09F5F5F4F220F331F06
:10151000441FAA1FA9F335D00E2E3AF0E0E832D0CE
:1015200091505040E695001CCAF72BD0FE2F29D0D1
:10153000660F771F881FBB1F261737074807AB07A3
:10154000B0E809F0BB0B802DBF01FF2793585F4F18
:101550003AF09E3F510578F00C946A0B0C94B50B51
:101560005F3FE4F3983ED4F3869577956795B795FA
:10157000F7959F5FC9F7880F911D9695879597F905
:101580000895E1E0660F771F881FBB1F621773077E
:101590008407BA0720F0621B730B840BBA0BEE1F93
:1015A00088F7E09508950E94DA0A6894B1110C94C6
:1015B000B50B08950E949A0B88F09F5798F0B92FA9
:1015C0009927B751B0F0E1F0660F771F881F991F78
:1015D0001AF0BA95C9F714C0B13091F00E94B40B5B
:1015E000B1E008950C94B40B672F782F8827B85F6B
:1015F00039F0B93FCCF3869577956795B395D9F7D0
:101600003EF490958095709561957F4F8F4F9F4FD9
:101610000895E89409C097FB3EF4909580957095E5
:1016200061957F4F8F4F9F4F9923A9F0F92F96E92E
:10163000BB279395F695879577956795B795F111A3
:10164000F8CFFAF4BB0F11F460FF1BC06F5F7F4F40
:101650008F4F9F4F16C0882311F096E911C0772352
:1016600021F09EE8872F762F05C0662371F096E85B
:10167000862F70E060E02AF09A95660F771F881F2A
:10168000DAF7880F9695879597F90895990F0008CE
:10169000550FAA0BE0E8FEEF16161706E807F90744
:1016A000C0F012161306E407F50798F0621B730BDF
:1016B000840B950B39F40A2661F0232B242B252B60
:1016C00021F408950A2609F4A140A6958FEF811D03
:1016D000811D089597F99F6780E870E060E00895A4
:1016E0009FEF80EC089500240A941616170618063A
:1016F0000906089500240A94121613061406050616
:101700000895092E0394000C11F4882352F0BB0FA6
:1017100040F4BF2B11F460FF04C06F5F7F4F8F4F09
:101720009F4F089557FD9058440F551F59F05F3F44
:1017300071F04795880F97FB991F61F09F3F79F0F3
:1017400087950895121613061406551FF2CF469575
:10175000F1DF08C0161617061806991FF1CF8695F7
:101760007105610508940895E894BB2766277727DB
:10177000CB0197F908950E94CE0B0C94810B0E9427
:10178000730B38F00E947A0B20F0952311F00C9423
:101790006A0B0C94700B11240C94B50B0E94920BE5
:1017A00070F3959FC1F3950F50E0551F629FF001B4
:1017B000729FBB27F00DB11D639FAA27F00DB11DCD
:1017C000AA1F649F6627B00DA11D661F829F222756
:1017D000B00DA11D621F739FB00DA11D621F839FDD
:1017E000A00D611D221F749F3327A00D611D231FB3
:1017F000849F600D211D822F762F6A2F11249F5701
:1018000050409AF0F1F088234AF0EE0FFF1FBB1F03
:10181000661F771F881F91505040A9F79E3F5105C2
:1018200080F00C946A0B0C94B50B5F3FE4F3983E88
:10183000D4F3869577956795B795F795E7959F5F6C
:10184000C1F7FE2B880F911D9695879597F90895FE
:10185000991B79E004C0991F961708F0961B881F02
:101860007A95C9F780950895EE0FFF1F0590F491C2
:10187000E02D0994FC018191861721F08823D9F786
:10188000992708953197CF010895FB01DC0141505C
:10189000504030F08D910190801919F40020B9F773
:1018A000881B990B0895F894FFCF01000000008178
:1018B00002E1010E02E9023F021D0231020D0A009F
:1018C0004745545F454E434F444552005054454EA2
:0218D000000016
:107E0000112484B714BE81FFF0D085E080938100F7
:107E100082E08093C00088E18093C10086E0809377
:107E2000C20080E18093C4008EE0C9D0259A86E02C
:107E300020E33CEF91E0309385002093840096BBD3
:107E4000B09BFECF1D9AA8958150A9F7CC24DD24C4
:107E500088248394B5E0AB2EA1E19A2EF3E0BF2EE7
:107E6000A2D0813461F49FD0082FAFD0023811F036
:107E7000013811F484E001C083E08DD089C08234E0
:107E800011F484E103C0853419F485E0A6D080C0E4
:107E9000853579F488D0E82EFF2485D0082F10E0AE
:107EA000102F00270E291F29000F111F8ED06801E7
:107EB0006FC0863521F484E090D080E0DECF843638
:107EC00009F040C070D06FD0082F6DD080E0C81688
:107ED00080E7D80618F4F601B7BEE895C0E0D1E017
:107EE00062D089930C17E1F7F0E0CF16F0E7DF06D8
:107EF00018F0F601B7BEE89568D007B600FCFDCFD4
:107F0000A601A0E0B1E02C9130E011968C91119780
:107F100090E0982F8827822B932B1296FA010C0160
:107F200087BEE89511244E5F5F4FF1E0A038BF0790
:107F300051F7F601A7BEE89507B600FCFDCF97BE46
:107F4000E89526C08437B1F42ED02DD0F82E2BD052
:107F50003CD0F601EF2C8F010F5F1F4F84911BD097
:107F6000EA94F801C1F70894C11CD11CFA94CF0C13
:107F7000D11C0EC0853739F428D08EE10CD085E9AC
:107F80000AD08FE07ACF813511F488E018D01DD067
:107F900080E101D065CF982F8091C00085FFFCCF94
:107FA0009093C60008958091C00087FFFCCF809118
:107FB000C00084FD01C0A8958091C6000895E0E648
:107FC000F0E098E1908380830895EDDF803219F02E
:107FD00088E0F5DFFFCF84E1DECF1F93182FE3DFCA
:107FE0001150E9F7F2DF1F91089580E0E8DFEE27F6
:047FF000FF270994CA
:027FFE00040479
:00000001FF
